:100000001DC100004CC100004AC1000048C10000F1
:1000100046C1000044C1000042C1000040C10000D0
:100020003EC100003CC100003AC1000038C10000E0
:1000300036C1000034C1000032C1000030C10000F0
:100040002EC100002CC100002AC1000028C1000000
:1000500026C1000024C1000022C100000C94C40F7E
:100060001EC100000C94880C0C94BE0C18C100003A
:1000700016C1000014C1000012C1000010C1000030
:100080000EC100000CC100000AC1000008C1000040
:1000900006C1000004C1000002C100000C94510917
:1000A000FEC00000FCC00000FAC00000F8C0000064
:1000B000F6C00000F4C00000F2C00000F0C0000074
:1000C000EEC00000ECC00000EAC00000E8C0000084
:1000D000E6C00000E4C00000E2C00000E0C0000094
:1000E000DEC00000E710EC10F110FB1005117E11CE
:1000F0000F1117111F11291133113D114C115611F8
:100100007E1160116A1174119F11A2119111951144
:100110009B11D911A611AA11B011B411B811BE11B9
:10012000C211C611D911CC11D011D41100000A0B83
:1001300002090C0D0E080703040100000000000076
:1001400000000000000000000000000000000000AF
:10015000000000000000000012111000000000006C
:10016000000000000000000000000000000000008F
:1001700000000102102020080810204010204080BC
:10018000020102010804020101020408102040805B
:1001900080402010080402018004020180402010E9
:1001A0000804020108040201010204081020408032
:1001B0000102040810204080050505050705080810
:1001C0000808020202020A0A0808040404040101E1
:1001D00001010101010103030303030303030407F6
:1001E00007070C0C0C0C0C0C0C0C0202020206068D
:1001F0000606060606060B0B0B0B0B0B0B0B000083
:100200002200250028002B002E00310034000201BE
:100210000000050108010B01000021002400270057
:100220002A002D0030003300010100000401070105
:100230000A01B401E105140BF00CE20111241FBE08
:10024000CFEFD1E2DEBFCDBF00E00CBF13E0A0E0F6
:10025000B2E0E8E8FDE200E00BBF02C007900D92BB
:10026000AE39B107D9F725E0AEE9B3E001C01D9280
:10027000A73AB207E1F712E0CAE3D2E000E006C015
:1002800022970109FE010BBF0E949014C233D107CF
:1002900080E00807A9F70E94B70F0C94B316B0CE00
:1002A00025E132E0FC0121933193CF010C94240F1E
:1002B0002EE732E0FC0131832083F2CFCF93DF932E
:1002C000EC01EEDFCE01DF91CF910C94C30FCF9301
:1002D000DF93EC01EDDFCE01DF91CF910C94C30FE2
:1002E00026E040E052EC61E070E08DEF94E00E9487
:1002F000260C87E194E066D462E370E087E194E045
:1003000072D461E087E194E073D48EE993E039D749
:1003100060E070E08EE993E042D76AE070E080E050
:1003200090E00E943D1061E070E08EE993E037D7E5
:1003300068EE73E080E090E00E943D10809106023C
:1003400090910702DC01ED91FC910480F581E02D94
:1003500019948091060290910702DC01ED91FC91C5
:100360000680F781E02D19940F93CF93DF9300D08F
:1003700000D0CDB7DEB78AEA93E0C9D68EE792E027
:100380009093AB038093AA0368E072E0CE010196DC
:100390000E948B0F00E021E040E350E0BE016F5F60
:1003A0007F4F8EE993E0C6D6CE0101960E94240FBE
:1003B00026960FB6F894DEBF0FBECDBFDF91CF916A
:1003C0000F9108958EE993E00E94240F8AEA93E04A
:1003D0006FCFFC01108281E085874787508B618B4E
:1003E000728B26870895AF92BF92CF92DF92EF92E1
:1003F000FF920F931F93CF93DF9300D000D0CDB720
:10040000DEB75B018A01FE01319626E0DF011D9215
:100410002A95E9F726E0462FFC01668587E194E0FE
:10042000D9D58111EAC087E194E0EAD3898387E1D5
:1004300094E0E6D38A8387E194E0E2D38B8387E17B
:1004400094E0DED38C8387E194E0DAD38D8387E177
:1004500094E0D6D36A8170E0762F66279981692B64
:10046000CC80D12CDC2CCC249B81C92AE82EF12C09
:10047000FE2CEE248D81E82AF4E1AF16B104D9F008
:100480005CF4A8E0AA16B10409F47FC0BEE0AB1684
:10049000B10409F441C0B3C0E8E2AE16B10409F4F6
:1004A00074C0FEE2AF16B10409F46FC08AE1A81669
:1004B000B10491F1A4C0882777FD8095982F0E9400
:1004C0004D1320E030E041E654E40E94B212F801FE
:1004D0006083718382839383B601882777FD80953B
:1004E000982F0E944D1320E030E041E654E40E9432
:1004F000B212D80114966D937D938D939C931797A8
:10050000B701882777FD8095982F0E944D1320E032
:1005100030E041E654E469C0882777FD8095982F44
:100520000E944D1320E030E040E85DE30E9401149A
:10053000D8016D937D938D939C931397B601882773
:1005400077FD8095982F0E944D1320E030E040E821
:100550005DE30E940114F8016483758386839783A9
:10056000B701882777FD8095982F0E944D1320E0D2
:1005700030E040E85DE30E940114D80118966D93C5
:100580007D938D939C931B973AC0882777FD809528
:10059000982F0E944D1320E030E048EC52E40E9476
:1005A000B212F8016083718382839383B601882736
:1005B00077FD8095982F0E944D1320E030E048ECA5
:1005C00052E40E94B212D80114966D937D938D93DC
:1005D0009C931797B701882777FD8095982F0E94E5
:1005E0004D1320E030E048EC52E40E94B212F801D2
:1005F000608771878287938702C080E001C081E0B5
:1006000026960FB6F894DEBF0FBECDBFDF91CF9117
:100610001F910F91FF90EF90DF90CF90BF90AF9020
:100620000895242F462FFC01668587E194E08DD440
:1006300091E0811190E0892F0895CF9340E26FE31C
:1006400070E0EFDFC82F882331F068EE73E080E0C0
:1006500090E00E943D108C2FCF910895462F6EE3BD
:1006600070E0DFCF462F67E070E0DBCF1F93CF93C2
:10067000DF93EC0141E06BE370E0D3DF182F44E23D
:1006800061E470E0CE01CDDF182343E062E470E066
:10069000CE01C7DF8123DF91CF911F910895CF93C2
:1006A000DF93EA0121E0462FFC01668587E194E0B3
:1006B00091D4811106C087E194E0A2D2888381E0C1
:1006C00001C080E0DF91CF910895AC014B5F5F4F97
:1006D00069E370E0E4CFAC01485F5F4F6AE370E02C
:1006E000DECFCF93DF93EC01AC01475F5F4F64E057
:1006F00070E0D5DF882349F0AE01465F5F4F65E0CB
:1007000070E0CE01DF91CF91CACF80E0DF91CF9131
:100710000895AC01455F5F4F66E070E0C0CF0F9376
:100720001F93CF93DF931F92CDB7DEB78C01AE013D
:100730004F5F5F4F65E370E0B2DF8823D1F09981AE
:10074000292F2295269526952370F8012183292F9C
:1007500030E0A90164E0559547956A95E1F743704B
:10076000428335952795359527952370248393707B
:1007700093830F90DF91CF911F910F910895CF93A5
:10078000DF931F92CDB7DEB7AE014F5F5F4F60E0E2
:1007900070E085DF882329F081E09981903A09F0A3
:1007A00080E00F90DF91CF910895AC014A5F5F4FD9
:1007B00066E370E074CFCF92DF92EF92FF92CF9317
:1007C000DF93EC01188264EF71E080E090E00E941A
:1007D0003D10CE01D4DF811102C0F12C8DC06AE042
:1007E00070E080E090E00E943D10CE0126DF88237B
:1007F000A1F30E940E106B017C01CE01C0DF8D873A
:100800006AE070E080E090E00E943D108D858111EB
:100810000DC00E940E106C197D098E099F09693E5A
:1008200073408105910548F3FD8466C040E06DE3A7
:1008300070E0CE01F6DE882381F268EE73E080E09E
:1008400090E00E943D1060E0CE010CDF882329F289
:100850006AE070E080E090E00E943D10CE01A5DFEC
:10086000882309F4BACF6AE070E080E090E00E944B
:100870003D108E818F3009F0B0CF6AE070E080E0EB
:1008800090E00E943D10CE012CDF882309F4A5CF13
:100890006AE070E080E090E00E943D10CE0139DF18
:1008A000882309F49ACFCE01E1DE882309F495CF9D
:1008B0006AE070E080E090E00E943D1060E070E04F
:1008C000CE01CCDE882309F488CF6AE070E080E0B6
:1008D00090E00E943D104CE06DE370E0CE01A1DE9F
:1008E000F82E882309F479CF64E670E080E090E088
:1008F0000E943D1081E088838F2DDF91CF91FF9082
:10090000EF90DF90CF9008958FE094E091D487E04E
:1009100094E08ED48FEF93E08BD487EF93E088C47C
:100920004AE050E060E070E08FE094E057D4882324
:1009300009F42BC18091F60381115AC048E853E1B4
:1009400060E070E087E094E049D4882309F41DC199
:100950008EEC93E030DF811109C06DE172E08DEF24
:1009600094E00E947C0D1092F603089565E372E016
:100970008DEF94E00E947C0D6EE472E08DEF94E0C8
:100980000E94710D40E150E06091D8038DEF94E03A
:100990000E94360E65E672E08DEF94E00E94710DC4
:1009A00040E150E06091D7038DEF94E00E94360E55
:1009B00063E372E08DEF94E00E947C0D67E672E0E5
:1009C0008DEF94E00E94710D4AE050E06091D903F0
:1009D0008DEF94E00E94360E63E372E08DEF94E0B9
:1009E0000E947C0D81E08093F6038093F5030895C7
:1009F0008EEC93E094DE8EEC93E067DE8EEC93E079
:100A00006ADE42EC53E06AE170E08EEC93E0EBDCEE
:100A10008091C2039091C303A091C403B091C50318
:100A20008093B6039093B703A093B803B093B90330
:100A30008091CA039091CB03A091CC03B091CD03D8
:100A40008093BA039093BB03A093BC03B093BD0300
:100A50008091C6039091C703A091C803B091C903C8
:100A6000B0588093BE039093BF03A093C003B0938C
:100A7000C1030E940E10AB01BC012AE030E08DEFF3
:100A800094E00E942A0E69E08DEF94E00E94720DBE
:100A90004AE050E06091D3038DEF94E00E94360E5F
:100AA00069E08DEF94E00E94720D4AE050E06091A1
:100AB000D6038DEF94E00E94360E69E08DEF94E04E
:100AC0000E94720D4AE050E06091CF038DEF94E0F8
:100AD0000E94360E69E08DEF94E00E94720D4AE0AC
:100AE00050E06091D2038DEF94E00E94360E69E0F1
:100AF0008DEF94E0F7D74AE050E06091D0038DEF9E
:100B000094E00E94360E69E08DEF94E0EBD74AE066
:100B100050E06091D1038DEF94E00E94360E69E0C1
:100B20008DEF94E0DFD74091BE035091BF036091F9
:100B3000C0037091C10322E030E08DEF94E00E9489
:100B4000130F69E08DEF94E0CDD74091BA03509137
:100B5000BB036091BC037091BD0322E030E08DEFD8
:100B600094E00E94130F69E08DEF94E0BBD74091B1
:100B7000B6035091B7036091B8037091B90322E0B6
:100B800030E08DEF94E00C94140F08958FE094E022
:100B90005ED387E094E05BD38FEF93E058D387EF89
:100BA00093E055D328E24FEF5FEFBA018EEC93E06C
:100BB00010DC8CE0E2ECF3E0DF011D928A95E9F7AE
:100BC0000895E4CF589A599AE9EBF0E080818E7F3E
:100BD000808380818D7F808388E48093B80084E463
:100BE0008093BC00089570933A046093390408958B
:100BF000611102C088E401C08CE08093B8000895C0
:100C000030913D0420913B04231B20933C0431117F
:100C100004C010923C0480E00895315030933D04AC
:100C2000FC01E20FF11D82810895CF92DF92EF92D5
:100C3000FF920F931F930E940E106B017C0184EAB8
:100C40008093BC008091390490913A042091BC00BB
:100C500027FD1BC00097D1F30E940E106C197D096F
:100C60008E099F094091390450913A048A0120E08D
:100C700030E0601771078207930720F31092BC00E1
:100C800084E48093BC0081E01CC08091B900887F1F
:100C9000883029F08091B900887F803111F480E09C
:100CA00010C08091B900887F883341F48091B900E9
:100CB0001092BC0094E49093BC0002C08091B900F3
:100CC000887F1F910F91FF90EF90DF90CF90089554
:100CD000CF92DF92EF92FF920F931F93CF93C62F85
:100CE0000E940E106B017C01CC2311F084EC01C03A
:100CF00084E88093BC008091390490913A0420915B
:100D0000BC0027FD1BC00097D1F30E940E106C1988
:100D10007D098E099F094091390450913A048A0156
:100D200020E030E0601771078207930720F31092EC
:100D3000BC0084E48093BC0081E010C08091B900C5
:100D4000887F883341F48091B9001092BC0094E40C
:100D50009093BC0002C08091B900887FCF911F9111
:100D60000F91FF90EF90DF90CF900895CF92DF9298
:100D7000EF92FF920F931F930E940E106B017C0164
:100D800084E98093BC008091390490913A042091C9
:100D9000BC0024FF1BC00097D1F30E940E106C19F9
:100DA0007D098E099F094091390450913A048A01C6
:100DB00020E030E0601771078207930720F310925C
:100DC000BC0084E48093BC0081E001C080E01F91FE
:100DD0000F91FF90EF90DF90CF900895CF92DF9228
:100DE000EF92FF920F931F93CF93DF93EC016093E9
:100DF000BB000E940E106B017C0184E88093BC0054
:100E00008091390490913A042091BC0027FD1BC0C9
:100E10000097D1F30E940E106C197D098E099F096D
:100E20002091390430913A04890120E030E06017C4
:100E300071078207930720F31092BC0084E480932B
:100E4000BC0081E023C08091B900887F883129F0FF
:100E50008091B900887F803411F480E017C0109130
:100E6000B900187F8091B900887F803229F0809185
:100E7000B900887F883421F4CE0178DF812F06C045
:100E80001092BC0084E48093BC00F8CFDF91CF9136
:100E90001F910F91FF90EF90DF90CF900895CF9228
:100EA000DF92EF92FF920F931F93CF93DF93EC01AA
:100EB0006093BB000E940E106B017C0184E880935C
:100EC000BC008091390490913A042091BC0027FD28
:100ED0001BC00097D1F30E940E106C197D098E097A
:100EE0009F092091390430913A04890120E030E0D3
:100EF000601771078207930720F31092BC0084E407
:100F00008093BC0081E018C08091B900887F88324E
:100F100091F01091B900187F8091B900887F8033DB
:100F200019F4CE0123DF05C01092BC0084E4809345
:100F3000BC00812F01C080E0DF91CF911F910F9104
:100F4000FF90EF90DF90CF900895EF92FF920F9374
:100F50001F93CF93DF931F92CDB7DEB77C01042F91
:100F6000122FFC011082698360DEF70180836981A2
:100F7000811128C0660FC70131DFF7018083882304
:100F800021F08130F9F482E01DC0602FC70187DFB6
:100F9000F7018083882321F08130A1F483E012C01F
:100FA000612FC7017CDFF70180838111F5CFC70175
:100FB000DDDEF7018083882321F0813019F487E09A
:100FC00001C080E00F90DF91CF911F910F91FF90B2
:100FD000EF900895EF92FF920F931F93CF93DF93BB
:100FE000EC01162F042FF22E10923D0410923C04B7
:100FF000211102C0FF24F3948FEF8F0D8983188293
:10100000CE0113DE8883882319F065E273E068C09F
:10101000110F612FCE01E2DE8883882331F0813009
:1010200009F463C06DE273E05BC0602FCE0137DF6F
:101030008883882331F0813009F459C065E373E077
:101040004FC0CE01F2DD8883882331F0813009F46E
:1010500050C06DE373E044C061E0610FCE01BEDEBD
:101060008883811103C000E010E013C0813009F4CF
:1010700042C065E473E034C08091BB00FE01E00F24
:10108000F11F8283E394E0923D04E0923B040F5F02
:101090001F4FE02E0F15D8F48981E8120DC060E0D3
:1010A000CE0116DE8883813011F486E029C08835B0
:1010B00019F36DE473E014C061E0CE0109DE8883AA
:1010C000813099F38035C1F265E573E009C0CE0146
:1010D0004DDE8883882389F0813089F06DE573E0E7
:1010E0008DEF94E009D588810BC082E009C083E0D0
:1010F00007C084E005C085E003C080E001C087E050
:10110000DF91CF911F910F91FF90EF900895CF93B2
:10111000DF93EC01FC0185E192E08193919365E618
:1011200073E0CF01F8D6188619861A861B86DF91E0
:10113000CF910895AF92BF92CF92DF92EF92FF923C
:101140000F93CF93DF931F92CDB7DEB75C017B0186
:101150006A0161E973E02983DED6B701C501F0D6E3
:10116000F501D782C6822981228703870F90DF91FC
:10117000CF910F91FF90EF90DF90CF90BF90AF9005
:101180000895FC018285882349F08385882311F026
:1011900060E001C061E086810C94DA1108950F933C
:1011A0001F93CF93DF93EC018B018B8581110FC0CF
:1011B0008A85882351F06115710511F460E001C042
:1011C00061E08E810E94131202C08E81DDD71987E3
:1011D0000887DF91CF911F910F910895CF92DF92F1
:1011E000EF92FF920F931F93CF93DF93EC016A016D
:1011F0007B0114D70C811D812E813F81601B710BF7
:10120000820B930BC616D706E806F90638F406D704
:101210006C837D838E839F8381E001C080E0DF91BA
:10122000CF911F910F91FF90EF90DF90CF90089595
:10123000CF93DF93EC01F2D6688379838A839B8313
:101240006C837D838E839F83DF91CF910895F0CF50
:10125000613298F42091AB04243089F460936004E7
:10126000FC0182E694E0DC012A2F281B261718F4E3
:1012700021912D93F9CF80E0089581E0089582E0D7
:10128000089585ED8093BC008091BC0084FDFCCF67
:101290001092AB04089585EC8093BC001092AB04CF
:1012A00008951F920F920FB60F9211240BB60F9252
:1012B0002F933F934F935F936F937F938F939F935E
:1012C000AF93BF93EF93FF938091B900887F8036EF
:1012D00009F49CC068F5883209F45BC090F4803151
:1012E00009F454C038F4882309F4F3C0883009F4B1
:1012F0004DC0F2C0883109F44CC0803209F45DC0A1
:10130000EBC0803409F468C048F4803309F455C058
:10131000883309F0E1C080933E04A7C0803509F40A
:101320004FC0883509F45DC0883409F0D5C0D3C0FA
:10133000883909F4C4C0A8F4883709F467C038F4C0
:10134000883609F463C0803709F460C0C5C08838A6
:1013500009F4B5C0803909F45FC0803809F0BCC019
:101360005BC0803B09F483C038F4803A09F466C05E
:10137000883A09F47CC0B0C0803C09F4A4C0883C21
:1013800009F4A1C0883B09F487C0A6C08091AA04D3
:1013900010C09091830480918204981770F5E091B9
:1013A000830481E08E0F80938304F0E0EC57FB4FC1
:1013B00080818093BB0085EC83C080933E048BC00A
:1013C000E091830481E08E0F809383048091BB00C1
:1013D000F0E0EC57FB4F808390918304809182046E
:1013E0006BC0E091830481E08E0F80938304809131
:1013F000BB00F0E0EC57FB4F80838091A904811182
:101400006AC081E08093A80484EA5EC083E0809390
:10141000AB0410923F04CFCF80913F04803208F09C
:101420004EC0E0913F0481E08E0F80933F04809195
:10143000BB00F0E0E05CFB4F8083BDCF80913F04B8
:10144000803230F4E0913F04F0E0E05CFB4F10822A
:1014500018DF60913F0470E0E091A404F091A504CE
:1014600080E494E0199510923F0415DF35C084E0C4
:101470008093AB041092610410926004E091A60482
:10148000F091A704199580916004811105C081E055
:101490008093600410926204E091610481E08E0FF9
:1014A00080936104F0E0EE59FB4F80818093BB0094
:1014B0009091610480916004981708F47CCF85E8CE
:1014C0008093BC0009C085EC8093BC001092AB04F3
:1014D00003C010923E04D5DEFF91EF91BF91AF9112
:1014E0009F918F917F916F915F914F913F912F913C
:1014F0000F900BBE0F900FBE0F901F90189580910C
:10150000DB0490E02091DC04821B91090895209176
:10151000DC048091DB04281750F4E22FF0E0E35262
:10152000FB4F808190E02F5F2093DC0408958FEFC4
:101530009FEF0895E091DC048091DB04E81730F41C
:10154000F0E0E352FB4F808190E008958FEF9FEF32
:1015500008950895CF92DF92EF92FF920F931F9319
:10156000CF93DF937C01CB018A012091B804222321
:1015700089F0EB016B01C40ED51ECC15DD0561F0C1
:101580006991D701ED91FC910190F081E02DC701A7
:101590001995F3CF642F5CDEC801DF91CF911F91C5
:1015A0000F91FF90EF90DF90CF900895CF93DF934E
:1015B0001F92CDB7DEB769832091B8042223D1F002
:1015C0002091B904203240F021E030E0FC01338367
:1015D000228380E090E014C08091BA04E82FF0E00C
:1015E000E554FB4F998190838F5F8093BA04809379
:1015F000B90404C061E0CE0101962ADE81E090E0EA
:101600000F90DF91CF910895FC011382128248EE72
:1016100053E060E070E0448355836683778383E71B
:1016200093E09183808308958CEA94E0EDCFFC01F0
:10163000818D228D90E0805C9F4F821B91098F737A
:1016400099270895FC01918D828D981731F0828D34
:10165000E80FF11D858D90E008958FEF9FEF0895BD
:10166000FC01918D828D981761F0828DDF01A80FAA
:10167000B11D5D968C91928D9F5F9F73928F90E0CC
:1016800008958FEF9FEF089587EE9CE0892B39F046
:1016900080E090E0892B19F09AD1811125C080E07B
:1016A00090E0892B41F080E090E0892B21F00E94AE
:1016B000000081111CC080E090E0892B41F080E0A7
:1016C00090E0892B21F00E940000811113C080E07E
:1016D00090E0892BA1F080E090E0892B81F00E94BE
:1016E000000081110AC008950E940000D8CF0E9416
:1016F0000000E1CF0E940000EACF0C9400000895A2
:10170000FC01848DDF01A80FB11DA35ABF4F2C919E
:10171000848D90E001968F739927848FA689B7896D
:101720002C93A089B1898C9180648C93938D848D46
:10173000981306C00288F389E02D80818F7D808315
:101740000895CF93DF93EC01888D8823C1F0EA8957
:10175000FB89808185FD05C0A889B9898C9186FDAA
:101760000EC00FB607FCF5CF808185FFF2CFA889A8
:10177000B9898C9185FFEDCFCE01C2DFE8CFDF9133
:10178000CF910895CF92DF92FF920F931F93CF9343
:10179000DF931F92CDB7DEB76C0181E0D60158967A
:1017A0008C9358975B969C915B975C968C915C9719
:1017B000981307C05096ED91FC915197808185FD5B
:1017C0002DC0F601038D10E00F5F1F4F0F7311271F
:1017D000F02EF601848DF81210C00FB607FCF9CF79
:1017E000D6015096ED91FC915197808185FFF1CF04
:1017F000C601698385DF6981ECCF838DE80FF11D18
:10180000E35AFF4F6083D6015B960C935B97529629
:10181000ED91FC915397808180620CC0D601569661
:10182000ED91FC91579760835096ED91FC91519703
:1018300080818064808381E090E00F90DF91CF9180
:101840001F910F91FF90DF90CF900895BF92CF929C
:10185000DF92EF92FF92CF93DF93EC016A017B015D
:10186000B22EE889F98982E08083411581EE58071C
:1018700061057105A1F060E079E08DE390E0A701DA
:1018800096010E9468142150310941095109569569
:10189000479537952795211580E1380798F0E88915
:1018A000F989108260E874E88EE190E0A701960162
:1018B0000E946814215031094109510956954795F4
:1018C00037952795EC85FD853083EE85FF85208350
:1018D000188EEC89FD89B082EA89FB89808180615C
:1018E0008083EA89FB89808188608083EA89FB891B
:1018F000808180688083EA89FB8980818F7D8083F5
:10190000DF91CF91FF90EF90DF90CF90BF9008953F
:101910001F920F920FB60F9211240BB60F922F93B6
:101920008F939F93EF93FF93E0910D05F0910E0538
:101930008081E0911305F091140582FD12C0908121
:10194000809116058F5F8F7320911705821751F0D4
:10195000E0911605F0E0E350FB4F958F809316055C
:1019600001C08081FF91EF919F918F912F910F90F6
:101970000BBE0F900FBE0F901F9018951F920F92E5
:101980000FB60F9211240BB60F922F933F934F93E4
:101990005F936F937F938F939F93AF93BF93EF93D7
:1019A000FF938DEF94E0ACDEFF91EF91BF91AF918B
:1019B0009F918F917F916F915F914F913F912F9167
:1019C0000F900BBE0F900FBE0F901F9018958DEFCC
:1019D00094E02DDE21E0892B09F420E0822F089588
:1019E000109200051092FF0488EE93E0A0E0B0E0B2
:1019F0008093010590930205A0930305B09304051D
:101A000083E893E09093FE048093FD0485EC90E0DE
:101A100090930A058093090584EC90E090930C055F
:101A200080930B0580EC90E090930E0580930D055C
:101A300081EC90E09093100580930F0582EC90E08C
:101A4000909312058093110586EC90E09093140515
:101A50008093130510921605109217051092180521
:101A6000109219050895CF92DF92EF92FF920F9393
:101A70001F93CF93DF936C017A01EB01E60EF71E03
:101A800000E010E0CE15DF0561F06991D601ED911F
:101A9000FC910190F081E02DC6011995080F191FE6
:101AA000F1CFC801DF91CF911F910F91FF90EF907F
:101AB000DF90CF9008956115710581F0DB010D90E5
:101AC0000020E9F7AD0141505109461B570BDC01DD
:101AD000ED91FC910280F381E02D199480E090E07B
:101AE0000895E9CFDC01ED91FC910190F081E02DAA
:101AF00019946FE873E0DFCF0F931F93CF93DF93B9
:101B0000EC01D9DF8C01CE01F4DF800F911FDF9152
:101B1000CF911F910F9108958F929F92AF92BF9294
:101B2000CF92DF92EF92FF920F931F93CF93DF93A9
:101B3000CDB7DEB7A1970FB6F894DEBF0FBECDBF0D
:101B40007C01C42EE52FCB01D22E19A221E02D1548
:101B500010F02AE0D22E8E010F5D1F4F8D2C912C9C
:101B6000A12CB12C6C2D7E2FA5019401B1D68C2D0A
:101B7000D29E80191124015011098A3014F4805D1D
:101B800001C0895CF80180832115310541055105AB
:101B900021F0C22EE32FCA01E5CFB801C7018BDFC8
:101BA000A1960FB6F894DEBF0FBECDBFDF91CF91E7
:101BB0001F910F91FF90EF90DF90CF90BF90AF906B
:101BC0009F908F900895CF92DF92EF92FF920F93A4
:101BD0001F93CF93DF93EC016A017B01211531053F
:101BE00079F4E881F9810190F081E02D642FDF9193
:101BF000CF911F910F91FF90EF90DF90CF901994AC
:101C00002A303105D9F477FF18C06DE26BDF8C0103
:101C100044275527BA014C195D096E097F092AE04E
:101C2000CE017ADF800F911FDF91CF911F910F912D
:101C3000FF90EF90DF90CF9008952AE0B701A601C2
:101C4000CE01DF91CF911F910F91FF90EF90DF9028
:101C5000CF9062CF2115310541F4DC01ED91FC916B
:101C60000190F081E02D642F199456CF9A01462FF0
:101C700050E060E070E0EECF4F925F926F927F9203
:101C80008F929F92AF92BF92CF92DF92EF92FF928C
:101C90000F931F93CF93DF93EC016A017B01B22E68
:101CA0009A01AB01C701B6010FD6882319F062E98A
:101CB00073E024C026013701E89477F82FEF3FEF57
:101CC0004FE75FE7C301B201FFD581110CC02FEFD1
:101CD0003FEF4FE75FE7C301B20140D418161CF491
:101CE00066E973E00BC02FEF3FEF4FE75FE4C701FA
:101CF000B60183D51816A4F46AE973E0CE01DF912A
:101D0000CF911F910F91FF90EF90DF90CF90BF90F8
:101D1000AF909F908F907F906F905F904F90CBCEC1
:101D20002FEF3FEF4FE75FECC701B60117D487FDF8
:101D3000E3CF20E030E0A901C701B6010FD487FF4F
:101D400009C06DE2CE01CEDE8C01F7FAF094F7F80F
:101D5000F09402C000E010E0A12C60E070E080E0B0
:101D60009FE3AB1439F020E030E040E251E4FAD3D5
:101D7000A394F7CF9B01AC01C701B6018BD36B01D4
:101D80007C015DD42B013C0186D49B01AC01C701D1
:101D9000B6017FD36B017C012AE0B301A201CE0121
:101DA000BBDE080F191FBB2031F065E672E0CE01E3
:101DB00082DE080F191F7B2C772019F120E030E01C
:101DC00040E251E4C701B6011CD56B017C0132D45D
:101DD0004B01AA2497FCA094BA2C2AE030E0B5016C
:101DE000A401CE01F0DE080F191FC501B40155D4BE
:101DF0009B01AC01C701B6014CD36B017C017A9405
:101E0000DBCFC801DF91CF911F910F91FF90EF9031
:101E1000DF90CF90BF90AF909F908F907F906F900A
:101E20005F904F90089528CF0F931F93CF93DF9328
:101E3000EC0122DF8C01CE015CDE800F911FDF916F
:101E4000CF911F910F910895FC018081918104C66B
:101E5000CF93DF93EC0188819981009709F0FCD53D
:101E6000198218821D821C821B821A82DF91CF91F7
:101E700008950F931F93CF93DF93EC018B016F5F56
:101E80007F4F8881998177D6009731F09983888335
:101E90001B830A8381E001C080E0DF91CF911F9115
:101EA0000F910895CF93DF93EC0188819981892B5D
:101EB00029F08A819B818617970758F4CE01D9DFD4
:101EC000882341F08C819D81892B19F4E881F98167
:101ED000108281E0DF91CF910895EF92FF920F93EE
:101EE0001F93CF93DF93EC017B018A01BA01DADF04
:101EF000811103C0CE01ACDF06C01D830C83B70186
:101F00008881998129D7CE01DF91CF911F910F91BF
:101F1000FF90EF900895FC011182108213821282CB
:101F2000158214826115710551F0FB0101900020AA
:101F3000E9F7AF0141505109461B570BCECF089529
:101F4000CF93DF93EC01FB018617970751F0608177
:101F500071816115710521F044815581BEDF01C099
:101F600077DFCE01DF91CF910895E9D60895AAD009
:101F7000FDDF0E947001C4E4DBE00E94A90120970C
:101F8000E1F382DBFACF68C51F920F920FB60F9272
:101F900011242F933F938F939F93AF93BF9380917F
:101FA0009B0590919C05A0919D05B0919E05309157
:101FB0009A0523E0230F2D3720F40196A11DB11DB2
:101FC00005C026E8230F0296A11DB11D20939A0596
:101FD00080939B0590939C05A0939D05B0939E05CF
:101FE00080919F059091A005A091A105B091A205B7
:101FF0000196A11DB11D80939F059093A005A0930C
:10200000A105B093A205BF91AF919F918F913F9190
:102010002F910F900FBE0F901F9018952FB7F89427
:1020200060919B0570919C0580919D0590919E0506
:102030002FBF08953FB7F89480919F059091A00518
:10204000A091A105B091A20526B5A89B05C02F3F80
:1020500019F00196A11DB11D3FBF6627782F892F6A
:102060009A2F620F711D811D911D42E0660F771F2F
:10207000881F991F4A95D1F70895CF92DF92EF926A
:10208000FF92CF93DF936B017C01D4DFEB01C1148E
:10209000D104E104F10479F0FBD1CCDF6C1B7D0BA2
:1020A000683E7340A0F381E0C81AD108E108F10846
:1020B000C851DC4FECCFDF91CF91FF90EF90DF90D4
:1020C000CF900895789484B5826084BD84B5816092
:1020D00084BD85B5826085BD85B5816085BDEEE630
:1020E000F0E0808181608083E1E8F0E0108280810F
:1020F00082608083808181608083E0E8F0E080817D
:1021000081608083E1EBF0E0808184608083E0EB9C
:10211000F0E0808181608083E1E9F0E0808182608D
:102120008083808181608083E0E9F0E0808181604C
:102130008083E1EAF0E08081826080838081816039
:102140008083E0EAF0E0808181608083E1E2F1E079
:10215000808182608083808181608083E0E2F1E021
:10216000808181608083EAE7F0E080818460808301
:1021700080818260808380818160808380818068AB
:1021800080831092C10008951F93CF93DF93182F7F
:10219000EB0161E00FD1209711F460E004C0CF3F64
:1021A000D10531F461E0812FDF91CF911F913BC1C7
:1021B000E12FF0E0E45DFE4F449150E0FA013197E9
:1021C000E231F10508F09AC0EE58FF4FA3C384B581
:1021D000806884BDC7BD97C084B5806284BDC8BD1A
:1021E00092C080918000806880938000D0938900A5
:1021F000C093880088C080918000806280938000B6
:10220000D0938B00C0938A007EC08091800088604C
:1022100080938000D0938D00C0938C0074C0809117
:10222000B00080688093B000C093B3006CC0809110
:10223000B00080628093B000C093B40064C080910D
:102240009000806880939000D0939900C09398008C
:102250005AC080919000806280939000D0939B0040
:10226000C0939A0050C08091900088608093900045
:10227000D0939D00C0939C0046C08091A0008068D0
:102280008093A0008091A0008F7B8093A000D093CA
:10229000A900C093A80037C08091A00080628093FD
:1022A000A000D093AB00C093AA002DC08091A000E5
:1022B00088608093A000D093AD00C093AC0023C091
:1022C00080912001806880932001D0932901C093E0
:1022D000280119C080912001806280932001D09351
:1022E0002B01C0932A010FC0809120018860809348
:1022F0002001D0932D01C0932C0105C0C038D10519
:102300000CF050CF4ACFDF91CF911F91089590E00C
:10231000FC013197E231F10508F04BC0EC57FF4F5B
:10232000F9C2809180008F7703C0809180008F7DFB
:1023300080938000089580918000877FF9CF84B5D5
:102340008F7702C084B58F7D84BD08958091B000E1
:102350008F7703C08091B0008F7D8093B000089587
:10236000809190008F7707C0809190008F7D03C08F
:1023700080919000877F8093900008958091A000C5
:102380008F7707C08091A0008F7D03C08091A0004F
:10239000877F8093A0000895809120018F7707C0E8
:1023A000809120018F7D03C080912001877F8093E1
:1023B00020010895CF93DF9390E0FC01EE58FE4F8B
:1023C0002491FC01E854FE4F8491882349F190E068
:1023D000880F991FFC01E85EFD4FA591B4918250D2
:1023E0009E4FFC01C591D4919FB7611108C0F8942C
:1023F0008C91209582238C93888182230AC062303D
:1024000051F4F8948C91322F309583238C938881EA
:10241000822B888304C0F8948C91822B8C939FBF6D
:10242000DF91CF9108950F931F93CF93DF931F9266
:10243000CDB7DEB7282F30E0F901E45DFE4F84917F
:10244000F901EE58FE4F1491F901E854FE4F049142
:102450000023C1F0882319F0698359DF6981E02FD7
:10246000F0E0EE0FFF1FE250FE4FA591B4919FB731
:10247000F8948C91611103C01095812301C0812BC8
:102480008C939FBF0F90DF91CF911F910F91089573
:1024900008955058BB27AA270ED075C166D130F0D9
:1024A0006BD120F031F49F3F11F41EF45BC10EF4A8
:1024B000E095E7FB51C1E92F77D180F3BA176207A6
:1024C00073078407950718F071F49EF58FC10EF419
:1024D000E0950B2EBA2FA02D0B01B90190010C0134
:1024E000CA01A0011124FF27591B99F0593F50F44C
:1024F000503E68F11A16F040A22F232F342F4427A4
:10250000585FF3CF469537952795A795F04053959B
:10251000C9F77EF41F16BA0B620B730B840BBAF06B
:102520009150A1F0FF0FBB1F661F771F881FC2F7D6
:102530000EC0BA0F621F731F841F48F487957795EA
:102540006795B795F7959E3F08F0B3CF9395880FA1
:1025500008F09927EE0F979587950895D9D008F43C
:1025600081E008950CD00FC107D140F0FED030F0CB
:1025700021F45F3F19F0F0C0511139C1F3C014D1FB
:1025800098F39923C9F35523B1F3951B550BBB273A
:10259000AA2762177307840738F09F5F5F4F220FE7
:1025A000331F441FAA1FA9F333D00E2E3AF0E0E8E0
:1025B00030D091505040E695001CCAF729D0FE2F2C
:1025C00027D0660F771F881FBB1F261737074807BE
:1025D000AB07B0E809F0BB0B802DBF01FF27935874
:1025E0005F4F2AF09E3F510568F0B6C000C15F3FC3
:1025F000ECF3983EDCF3869577956795B795F7955C
:102600009F5FC9F7880F911D9695879597F9089553
:10261000E1E0660F771F881FBB1F621773078407EF
:10262000BA0720F0621B730B840BBA0BEE1F88F7FE
:10263000E095089504D06894B111D9C00895BCD034
:1026400088F09F5790F0B92F9927B751A0F0D1F09B
:10265000660F771F881F991F1AF0BA95C9F712C025
:10266000B13081F0C3D0B1E00895C0C0672F782F9A
:102670008827B85F39F0B93FCCF386957795679591
:10268000B395D9F73EF490958095709561957F4FFD
:102690008F4F9F4F0895E89409C097FB3EF49095A3
:1026A0008095709561957F4F8F4F9F4F9923A9F02B
:1026B000F92F96E9BB279395F695879577956795BA
:1026C000B795F111F8CFFAF4BB0F11F460FF1BC0FE
:1026D0006F5F7F4F8F4F9F4F16C0882311F096E991
:1026E00011C0772321F09EE8872F762F05C066233F
:1026F00071F096E8862F70E060E02AF09A95660FF8
:10270000771F881FDAF7880F9695879597F90895B0
:10271000990F0008550FAA0BE0E8FEEF16161706F2
:10272000E807F907C0F012161306E407F50798F05A
:10273000621B730B840B950B39F40A2661F0232B73
:10274000242B252B21F408950A2609F4A140A695EF
:102750008FEF811D811D089597F99F6780E870E0D4
:1027600060E008959FEF80EC089500240A94161607
:10277000170618060906089500240A94121613066F
:10278000140605060895092E0394000C11F48823FD
:1027900052F0BB0F40F4BF2B11F460FF04C06F5F19
:1027A0007F4F8F4F9F4F089557FD9058440F551FEF
:1027B00059F05F3F71F04795880F97FB991F61F0C3
:1027C0009F3F79F087950895121613061406551F3A
:1027D000F2CF4695F1DF08C0161617061806991FA6
:1027E000F1CF86957105610508940895E894BB279B
:1027F00066277727CB0197F908958ADF08F48FEFD2
:1028000008950BD0C0CFB1DF28F0B6DF18F09523C4
:1028100009F0A2CFA7CF1124EACFC6DFA0F3959F7E
:10282000D1F3950F50E0551F629FF001729FBB27B7
:10283000F00DB11D639FAA27F00DB11DAA1F649F63
:102840006627B00DA11D661F829F2227B00DA11D16
:10285000621F739FB00DA11D621F839FA00D611D9C
:10286000221F749F3327A00D611D231F849F600DBD
:10287000211D822F762F6A2F11249F5750408AF0F6
:10288000E1F088234AF0EE0FFF1FBB1F661F771F82
:10289000881F91505040A9F79E3F510570F05CCFC2
:1028A000A6CF5F3FECF3983EDCF38695779567956E
:1028B000B795F795E7959F5FC1F7FE2B880F911DA0
:1028C0009695879597F9089523DF880B990B0895BE
:1028D000A1E21A2EAA1BBB1BFD010DC0AA1FBB1F24
:1028E000EE1FFF1FA217B307E407F50720F0A21B96
:1028F000B30BE40BF50B661F771F881F991F1A9403
:1029000069F760957095809590959B01AC01BD012C
:10291000CF010895EE0FFF1F0590F491E02D19945B
:102920000790F691E02D1994CF93DF9382309105B3
:1029300010F482E090E0E091A505F091A60520E07A
:1029400030E0A0E0B0E0309739F140815181481784
:102950005907B8F04817590771F48281938110978D
:1029600029F013969C938E9312972CC09093A605F2
:102970008093A50527C02115310531F04217530773
:1029800018F0A901DB0101C0EF019A01BD01DF01CF
:102990000280F381E02DD7CF21153105F9F0281BF6
:1029A000390B2430310580F48A819B8161157105D2
:1029B00021F0FB019383828304C09093A60580934A
:1029C000A505FE01329644C0FE01E20FF31F81937C
:1029D000919322503109398328833AC02091A3056D
:1029E0003091A405232B41F420910202309103027F
:1029F0003093A4052093A305209100023091010299
:102A00002115310541F42DB73EB740910402509194
:102A10000502241B350BE091A305F091A405E217F4
:102A2000F307A0F42E1B3F0B2817390778F0AC01F1
:102A30004E5F5F4F2417350748F04E0F5F1F5093CE
:102A4000A4054093A3058193919302C0E0E0F0E0D8
:102A5000CF01DF91CF910895CF93DF93009709F4D1
:102A600087C0FC01329713821282C091A505D091D4
:102A7000A605209781F420813181280F391F80918C
:102A8000A3059091A4058217930779F5F093A40507
:102A9000E093A3056DC0DE0120E030E0AE17BF0774
:102AA00050F412964D915C9113979D01411551057B
:102AB00009F1DA01F3CFB383A28340815181840FFE
:102AC000951F8A179B0771F48D919C911197840F24
:102AD000951F02969183808312968D919C911397F6
:102AE000938382832115310529F4F093A605E093A1
:102AF000A5053EC0D9011396FC93EE9312974D9114
:102B00005D91A40FB51FEA17FB0779F480819181CD
:102B1000840F951F0296D90111969C938E93828102
:102B2000938113969C938E931297E0E0F0E08A8154
:102B30009B81009719F0FE01EC01F9CFCE010296BE
:102B400028813981820F931F2091A3053091A4051C
:102B50002817390769F4309729F41092A6051092C6
:102B6000A50502C013821282D093A405C093A305C9
:102B7000DF91CF9108956F927F928F929F92AF9243
:102B8000BF92CF92DF92EF92FF920F931F93CF935A
:102B9000DF93EC01CB01209779F4DF91CF911F9166
:102BA0000F91FF90EF90DF90CF90BF90AF909F90EC
:102BB0008F907F906F90B8CEFE01E60FF71F9E01B9
:102BC00022503109E217F30708F4A8C0D9010D918A
:102BD0001C91119706171707B0F00530110508F47E
:102BE0009BC0A801445051094617570708F494C0E8
:102BF00002501109061B170B019311936D937C93DF
:102C0000CF012ADF89C05B01A01AB10A4E01800EF4
:102C1000911EA091A505B091A605612C712C60E0D4
:102C200070E0109709F449C0A815B905C9F5ED90F1
:102C3000FC901197670142E0C40ED11CCA14DB045A
:102C400078F147018A189B08640142E0C40ED11C48
:102C50001296BC9012971396AC91B5E0CB16D104A6
:102C600040F0B282A38391828082D9018D939C939C
:102C700009C00E5F1F4F0E0D1F1DF9011183008348
:102C8000EB2DFA2F6115710531F0DB011396FC93E2
:102C9000EE93129741C0F093A605E093A5053CC0C2
:102CA0006D917C9111976616770608F43B01BD0182
:102CB00012960D90BC91A02DB4CF6091A305709198
:102CC000A40568157905E9F468167906D0F44091F1
:102CD0000002509101024115510541F44DB75EB714
:102CE0006091040270910502461B570BE417F5072B
:102CF000A8F4F093A405E093A305F90191838083E0
:102D00000BC012DE7C01009749F0A801BE011BD068
:102D1000CE01A2DEC70104C0CE0102C080E090E077
:102D2000DF91CF911F910F91FF90EF90DF90CF90A7
:102D3000BF90AF909F908F907F906F90089581E0AB
:102D400090E0F89410C0FB01DC0102C001900D92EC
:102D500041505040D8F70895FB01DC0101900D92DD
:102D60000020E1F7089512E0CAE3D2E000E005C0D8
:102D700022970109FE010BBFD3DDCC33D10780E0E0
:082D80000807B1F7F894FFCF3A
:102D88000000A7058000AA03693263706F77657237
:102D9800000000000050015E01B50FB50F424E4F14
:102DA8005F494E49545F5354415455533A4641493B
:102DB8004C45443B00424E4F5F494E49545F535483
:102DC800415455533A535543434553533B00424EA0
:102DD8004F3035352E53575F5265766973696F6E7C
:102DE8005F49443A002E00424E4F3035352E626F0F
:102DF8006F746C6F616465723A00000000005801DE
:102E08006701840490046C6F673A5363616E6E695E
:102E18006E6720666F7220646576696365732E2E0F
:102E28002E706C6561736520776169743B006C6F07
:102E3800673A546865726520697320612070726F03
:102E4800626C656D207769746820746865206275A6
:102E5800732C20636F756C64206E6F7420636F6DC4
:102E6800706C657465207363616E3B006C6F673AC4
:102E7800466F756E642064657669636520617420A9
:102E880061646472657373202D2000203078006CB3
:102E98006F673A4E6F206465766963657320666F65
:102EA800756E643B004E4F5045442041004E4F50D4
:102EB80045442042004E4F5045442043004E4F5059
:102EC80045442044004E4F5045442045004E4F5045
:102ED80045442046004E4F5045442047004E4F5031
:102EE80045442048004E4100310030005F5F00003B
:102EF800000000D60AAA0A7F0A870A9A0AA90A00C5
:102F0800000000C20B330D170B300B220BA10B0D69
:0E2F18000A006E616E00696E66006F766600DC
:00000001FF
