:10000000A8C00000D7C00000D5C00000D3C00000C9
:10001000D1C00000CFC00000CDC00000CBC00000A8
:10002000C9C00000C7C00000C5C00000C3C00000B8
:10003000C1C00000BFC00000BDC00000BBC00000C8
:10004000B9C00000B7C00000B5C00000B3C00000D8
:10005000B1C00000AFC00000ADC000000C941D1086
:10006000A9C000000C943F0D0C94750DA3C00000B6
:10007000A1C000009FC000009DC000009BC0000008
:1000800099C0000097C0000095C0000093C0000018
:1000900091C000008FC000008DC000000C940A0ABF
:1000A00089C0000087C0000085C0000083C0000038
:1000B00081C000007FC000007DC000007BC0000048
:1000C00079C0000077C0000075C0000073C0000058
:1000D00071C000006FC000006DC000006BC0000068
:1000E00069C00000036EDB363D9A9999993DABAA31
:1000F000AA2A3E000000803F084AD73B3BCE016E53
:1001000084BCBFFDC12F3D6C74319ABD56833DDA6E
:100110003D00C77F11BED9E4BB4C3E916BAAAABE7D
:10012000000000803F072C7AA5BA6CC590DA3B939B
:1001300065FC8BBC53F810FD3C5692834DBD879DEA
:100140003AB63DCBC9BF5BBE73DA0FC93F00CD0BDA
:10015000A70D11241FBECFEFD1E2DEBFCDBF00E05F
:100160000CBF17E0A0E0B2E0E0E2F9E200E00BBF74
:1001700002C007900D92A032B107D9F728E0A0E2A3
:10018000B7E001C01D92AA3CB207E1F711E0C2E559
:10019000D1E000E006C022970109FE010BBF0E94DA
:1001A0008A14CE34D10780E00807A9F70E94111005
:1001B0000C948E1425CF0F931F93FC016181862F21
:1001C00090E0A0E0B0E06627782F892F9A2F028177
:1001D00010E020E030E0980111270027600F711F28
:1001E000821F931F2081620F711D811D911D03814C
:1001F00010E020E030E0302F222711270027600F89
:10020000711F821F931F1F910F910895462F21E0A8
:10021000682F8EE397E0B9D7811103C08EE397E092
:10022000C9C58FEF0895CF93C92F282F40E668E204
:100230008EE397E064D72C2F41E668E28EE397E0E7
:100240005ED720E042E668E28EE397E058D720E0F0
:1002500043E668E28EE397E052D72BEC30E044E6C9
:1002600050E068E270E08EE397E08ED720E830E05F
:1002700044E550E068E270E08EE397E085D76AE3FA
:1002800088E2C4DF8B3CD9F720E030E044E650E060
:1002900068E270E08EE397E077D720E030E044E555
:1002A00050E068E270E08EE397E0CF916DC70F9366
:1002B0001F93CF93DF931F92CDB7DEB7092F162F71
:1002C000282F40E668E28EE397E0798318D7202F45
:1002D00041E668E28EE397E012D7212F42E668E21A
:1002E0008EE397E00CD77981272F43E668E28EE30F
:1002F00097E005D72AEC30E044E650E068E270E091
:100300008EE397E041D720E830E044E550E068E232
:1003100070E08EE397E038D76AE388E277DF8A3CC3
:10032000D9F720E030E044E650E068E270E08EE388
:1003300097E02AD720E030E044E550E068E270E042
:100340008EE397E00F90DF91CF911F910F911CC723
:10035000CF92DF92EF92FF92CF936A017B01C82F79
:10036000C068242F40E668E28EE397E0C8D65527A0
:100370004F2D3E2D2D2D41E668E28EE397E0BFD64E
:1003800097014427552742E668E28EE397E0B7D607
:100390002F2D33274427552743E668E28EE397E065
:1003A000AED62C2F44E668E28EE397E0A8D620E88C
:1003B00030E044E550E068E270E08EE397E0E4D698
:1003C0006AE388E223DF8C13FBCF20E030E044E6D1
:1003D00050E068E270E08EE397E0D6D620E030E0AF
:1003E00044E550E068E270E08EE397E0CF91FF9043
:1003F000EF90DF90CF90C8C6EF92FF920F931F93BC
:10040000CF93DF93CDB7DEB760970FB6F894DEBF1A
:100410000FBECDBF7C018E010F5F1F4F20E140E07A
:1004200068E28EE397E04ED7C801C5DEF70160832E
:10043000718382839383CE010596BDDEF7016483C9
:10044000758386839783CE010996B5DEF7016087B1
:10045000718782879387CE010D96ADDEF7016487A1
:1004600075878687978760960FB6F894DEBF0FBEB4
:10047000CDBFDF91CF911F910F91FF90EF90089525
:100480001F93CF93DF9360E788E2C0DED82F61E748
:1004900088E2BCDEC82F6AE272E084E298E00E9443
:1004A000280E6D2F70E040E150E084E298E00E9459
:1004B0000F0F6C2F70E040E150E084E298E00E9462
:1004C000140F61E472E084E298E00E94330E62E768
:1004D00088E29CDED82F63E788E298DEC82F63E5C8
:1004E00072E084E298E00E94280E6D2F70E04AE0EE
:1004F00050E084E298E00E940F0F6C2F70E04AE019
:1005000050E084E298E00E94140F60E988E27EDE09
:10051000C82F6AE672E084E298E00E94280E40E16B
:1005200050E06C2F84E298E00E94F40E6FE772E0D6
:1005300084E298E00E94330E61E988E267DEC82F0A
:1005400060E972E084E298E00E94280E40E150E009
:100550006C2F84E298E00E94F40E66EA72E084E276
:1005600098E00E94330E60ED77E080E090E00E941A
:10057000961067E388E24ADE182F117067E388E27D
:1005800045DE80FF06C067EB72E084E298E00E94DF
:10059000330E67E388E23ADE81FF06C06AED72E05F
:1005A00084E298E00E94330E67E388E22FDE82FF48
:1005B00006C067EF72E084E298E00E94330E67E3C2
:1005C00088E224DE83FF06C06DE073E084E298E0F9
:1005D0000E94330E67E388E219DE84FF06C06AE2F8
:1005E00073E084E298E00E94330ECBE0D0E011117A
:1005F0004EC021E030E04BE950E068E270E08EE36D
:1006000097E0C2D564EF71E080E090E00E94961020
:1006100067E388E2FBDD182F117067E388E2F6DDFF
:1006200080FF06C067EB72E084E298E00E94330E20
:1006300067E388E2EBDD81FF06C06AED72E084E2E9
:1006400098E00E94330E67E388E2E0DD82FF06C097
:1006500067EF72E084E298E00E94330E67E388E27D
:10066000D5DD83FF06C06DE073E084E298E00E9470
:10067000330E67E388E2CADD84FF06C06AE273E0F6
:1006800084E298E00E94330E219709F0B0CF67E32F
:1006900088E2BCDD82FD06C06EE373E084E298E090
:1006A0000E94330E68EE73E080E090E00E949610A6
:1006B00020E030E044E350E068E270E08EE397E051
:1006C00063D520E030E040EA50E068E270E08EE37D
:1006D00097E05AD522E030E042E350E068E270E073
:1006E0008EE397E051D52EE130E045E550E068E239
:1006F00070E08EE397E048D524E130E046E550E035
:1007000068E270E08EE397E03FD523E130E047E513
:1007100050E068E270E08EE397E036D520E030E00C
:1007200044E550E068E270E08EE397E02DD52FE7D6
:1007300030E043E350E068E270E08EE397E024D5D8
:1007400021E030E044E350E068E270E08EE397E0BF
:100750001BD564E670E080E090E00E94961068E5AA
:1007600073E084E298E00E94330E40E050E0BA016A
:1007700089E4EEDD68E070E088EE93E098DD80EDDE
:1007800097E051DD62E988E241DD80FF06C068E75D
:1007900073E084E298E00E94330E68E388E236DD7D
:1007A000C82F80FF06C069E973E084E298E00E94E8
:1007B000330EC1FF06C060EB73E084E298E00E9454
:1007C000330EC2FF06C067EC73E084E298E00E943B
:1007D000330EC3FF06C061EE73E084E298E00E942E
:1007E000330EC4FF06C063E074E084E298E00E9428
:1007F000330EC5FF06C065E274E084E298E00E9413
:10080000330E6EE988E202DD80FF06C064E474E026
:1008100084E298E00E94280E65E388E2F7DCC82FA6
:1008200080FF06C06EE574E084E298E00E94330E1B
:10083000C1FF06C060E774E084E298E00E94330ED6
:10084000C2FF06C06EE774E084E298E00E94330EB7
:10085000C3FF06C06CE974E084E298E00E94330EA6
:10086000C4FF06C063EB74E084E298E00E94330E9C
:10087000C5FF06C06CEC74E084E298E00E94330E81
:10088000C6FF06C064EE74E084E298E00E94330E76
:1008900068EE73E080E090E00E94961066E388E2E4
:1008A000B5DCC82F6CEF74E084E298E00E94280E5B
:1008B0004AE050E06C2F84E298E00E94FA0EC111E9
:1008C00006C065E175E084E298E00E94330EC0FF47
:1008D00006C065E275E084E298E00E94330EC1FF35
:1008E00006C065E475E084E298E00E94330EC2FF22
:1008F00006C066E675E084E298E00E94330EC4FF0D
:1009000006C06EE775E084E298E00E94330EC5FFF2
:1009100006C06EE975E084E298E00E94330EC6FFDF
:1009200006C06FEB75E084E298E00E94330E67ED3D
:1009300075E084E298E00E94280E65E488E266DCB7
:100940004AE050E0682F84E298E00E94F40E69EEDD
:1009500075E084E298E00E94330E6DEE75E084E26B
:1009600098E00E94280E66E488E250DC9AE0899FB5
:10097000B00111244AE050E084E298E00E94E10EC8
:1009800069EE75E084E298E00E94330E61E076E063
:1009900084E298E00E94280E67E488E237DC9AE05F
:1009A000899FB00111244AE050E084E298E00E945F
:1009B000E10E69EE75E084E298E00E94330E68EB88
:1009C0007BE080E090E0DF91CF911F910C94961036
:1009D0004F925F926F927F928F929F92AF92BF924F
:1009E000CF92DF92EF92FF92CF93DF93CDB7DEB736
:1009F0006C970FB6F894DEBF0FBECDBF65E388E2FB
:100A000005DC81FF12C060E588E200DC81110DC0C9
:100A10006CEF74E084E298E00E94280E4AE050E017
:100A200060E084E298E00E94FA0E65E388E2EEDB83
:100A300082FF03C08EE297E0DFDC80913A0790915D
:100A40003B07A0913C07B0913D0789839A83AB8314
:100A5000BC839C01AD01BC01CD010E94A713698735
:100A60007A878B879C8780912E0790912F07A09182
:100A70003007B09131078D839E83AF83B8879C0187
:100A8000AD01BC01CD010E94A713698B7A8B8B8BC2
:100A90009C8B4090320750903307609034077090E1
:100AA0003507A3019201C301B2010E94A7136D8B08
:100AB0007E8B8F8B988F8090360790903707A09011
:100AC0003807B0903907A5019401C501B4010E940F
:100AD000A713698F7A8F8B8F9C8F29893A894B89CD
:100AE0005C8969857A858B859C850E941F112D897B
:100AF0003E894F89588D0E941E11298D3A8D4B8D4C
:100B00005C8D0E941E116B017C01A30192016D811D
:100B10007E818F8198850E94A7136D877E878F873E
:100B2000988BA501940169817A818B819C810E94B7
:100B3000A7139B01AC016D857E858F8598890E94E6
:100B40001F119B01AC010E941F11A70196010E9479
:100B5000A9116D877E878F87988BA50194016D8180
:100B60007E818F8198850E94A7136B017C01A30170
:100B7000920169817A818B819C810E94A7139B01DC
:100B8000AC01C701B6010E941E119B01AC010E947D
:100B90001F110E9483116B017C0129893A894B89BD
:100BA0005C8969857A858B859C850E941E112D89BB
:100BB0003E894F89588D0E941E11298D3A8D4B8D8B
:100BC0005C8D0E941F1169877A878B879C872D8196
:100BD0003E814F81588569817A818B819C810E94F9
:100BE000A71369837A838B839C83A5019401C30136
:100BF000B2010E94A7139B01AC0169817A818B81AC
:100C00009C810E941F119B01AC010E941F1129852C
:100C10003A854B855C850E94A9114B015C01C70197
:100C2000B60190582DEE3EE245E652E40E94A7132D
:100C300060932607709327078093280790932907CE
:100C40002DEE3EE245E652E46D857E858F859889DE
:100C50000E94A7132DEC3CEC4CE551E40E941E11C0
:100C600060932A0770932B0780932C0790932D078E
:100C70002DEE3EE245E652E4C501B4010E94A71301
:100C8000609322077093230780932407909325078E
:100C90000E9467102091200730912107621B730B7F
:100CA0006B307105C4F14091220750912307609188
:100CB00024077091250722E030E084E298E00E944A
:100CC000FF0F69E084E298E0C4D740912607509175
:100CD0002707609128077091290722E030E084E21D
:100CE00098E00E94FF0F69E084E298E0B2D740915B
:100CF0002A0750912B0760912C0770912D0722E055
:100D000030E084E298E00E9400100E946710709327
:100D10002107609320076C960FB6F894DEBF0FBED4
:100D2000CDBFDF91CF91FF90EF90DF90CF90BF903C
:100D3000AF909F908F907F906F905F904F900895AD
:100D400026E040E052EC61E070E084E298E037D6C3
:100D50008EE397E011D062E370E08EE397E01DD060
:100D600061E08EE397E01ED068EE73E080E090E0F3
:100D70000E94961085CB2CCE589A599AE9EBF0E058
:100D800080818E7F808380818D7F808388E48093C3
:100D9000B80084E48093BC00089570936107609369
:100DA00060070895611102C088E401C08CE080935F
:100DB000B80008953091640720916207231B2093A7
:100DC0006307311104C01092630780E00895315029
:100DD00030936407FC01E20FF11D82810895CF92E8
:100DE000DF92EF92FF920F931F930E9467106B01A7
:100DF0007C0184EA8093BC00809160079091610738
:100E00002091BC0027FD1BC00097D1F30E94671002
:100E10006C197D098E099F09409160075091610707
:100E20008A0120E030E0601771078207930720F302
:100E30001092BC0084E48093BC0081E01CC08091CF
:100E4000B900887F883029F08091B900887F80318F
:100E500011F480E010C08091B900887F883341F49C
:100E60008091B9001092BC0094E49093BC0002C041
:100E70008091B900887F1F910F91FF90EF90DF90D4
:100E8000CF900895CF92DF92EF92FF920F931F932E
:100E9000CF93C62F0E9467106B017C01CC2311F009
:100EA00084EC01C084E88093BC008091600790913D
:100EB00061072091BC0027FD1BC00097D1F30E9461
:100EC00067106C197D098E099F0940916007509148
:100ED00061078A0120E030E06017710782079307FD
:100EE00020F31092BC0084E48093BC0081E010C029
:100EF0008091B900887F883341F48091B9001092C5
:100F0000BC0094E49093BC0002C08091B900887F3B
:100F1000CF911F910F91FF90EF90DF90CF900895A8
:100F2000CF92DF92EF92FF920F931F930E94671070
:100F30006B017C0184E98093BC00809160079091F3
:100F400061072091BC0024FF1BC00097D1F30E94D1
:100F500067106C197D098E099F09409160075091B7
:100F600061078A0120E030E060177107820793076C
:100F700020F31092BC0084E48093BC0081E001C0A7
:100F800080E01F910F91FF90EF90DF90CF90089538
:100F9000CF92DF92EF92FF920F931F93CF93DF9345
:100FA000EC016093BB000E9467106B017C0184E838
:100FB0008093BC0080916007909161072091BC00F4
:100FC00027FD1BC00097D1F30E9467106C197D09A3
:100FD0008E099F092091600730916107890120E007
:100FE00030E0601771078207930720F31092BC006E
:100FF00084E48093BC0081E023C08091B900887FA5
:10100000883129F08091B900887F803411F480E024
:1010100017C01091B900187F8091B900887F803285
:1010200029F08091B900887F883421F4CE0178DFDF
:10103000812F06C01092BC0084E48093BC00F8CFDE
:10104000DF91CF911F910F91FF90EF90DF90CF90A4
:101050000895CF92DF92EF92FF920F931F93CF9359
:10106000DF93EC016093BB000E9467106B017C0171
:1010700084E88093BC008091600790916107209183
:10108000BC0027FD1BC00097D1F30E9467106C19AC
:101090007D098E099F0920916007309161078901C0
:1010A00020E030E0601771078207930720F3109269
:1010B000BC0084E48093BC0081E018C08091B9003A
:1010C000887F883291F01091B900187F8091B90023
:1010D000887F803319F4CE0123DF05C01092BC0055
:1010E00084E48093BC00812F01C080E0DF91CF9128
:1010F0001F910F91FF90EF90DF90CF900895EF92A6
:10110000FF920F931F93CF93DF931F92CDB7DEB75C
:101110007C01042F122FFC011082698360DEF7012D
:1011200080836981811128C0660FC70131DFF70113
:101130008083882321F08130F9F482E01DC0602F84
:10114000C70187DFF7018083882321F08130A1F474
:1011500083E012C0612FC7017CDFF701808381111A
:10116000F5CFC701DDDEF7018083882321F08130D0
:1011700019F487E001C080E00F90DF91CF911F91BB
:101180000F91FF90EF900895BACFEF92FF920F93D7
:101190001F93CF93DF93EC01162F042FF22E1092A2
:1011A000640710926307211102C0FF24F3948FEFAC
:1011B0008F0D89831882CE0112DE8883882319F06F
:1011C0006FEA76E068C0110F612FCE01E1DE8883FF
:1011D000882331F0813009F463C067EB76E05BC0AF
:1011E000602FCE0136DF8883882331F0813009F407
:1011F00059C06FEB76E04FC0CE01F1DD88838823C4
:1012000031F0813009F450C067EC76E044C061E011
:10121000610FCE01BDDE8883811103C000E010E0C4
:1012200013C0813009F442C06FEC76E034C0809185
:10123000BB00FE01E00FF11F8283E394E09264079C
:10124000E09262070F5F1F4FE02E0F15D8F48981DF
:10125000E8120DC060E0CE0115DE8883813011F404
:1012600086E029C0883519F367ED76E014C061E0A7
:10127000CE0108DE8883813099F38035C1F26FEDAD
:1012800076E009C0CE014CDE8883882389F0813066
:1012900089F067EE76E084E298E0E5D488810BC0BF
:1012A00082E009C083E007C084E005C085E003C098
:1012B00080E001C087E0DF91CF911F910F91FF90F7
:1012C000EF900895DF92EF92FF920F931F93CF93C9
:1012D000DF93EC01F62EE42ED22E109264071092CA
:1012E0006307211102C0DD24D3948FEF8D0D898314
:1012F0001882CE0174DD888381115BC0FF0C6F2DD5
:10130000CE0146DE8883882329F0813009F051C060
:1013100082E04FC06E2DCE019CDE8883882329F0A9
:10132000813009F046C083E044C0CE0158DD888397
:10133000882329F0813009F03CC084E03AC061E0A4
:101340006F0DCE0125DE8883811103C0780110E086
:1013500018C0813071F585E02CC060E0CE0192DDCF
:1013600088838130B9F0883521F58091BB00F70181
:1013700081937F011F5F10936407109362071D150F
:1013800071F08981181749F361E0CE017BDD888314
:10139000813011F486E00DC0803539F30AC0CE01EA
:1013A000BFDD8883882321F0813019F487E001C0F4
:1013B00080E0DF91CF911F910F91FF90EF90DF9030
:1013C0000895613298F42091D207243089F4609313
:1013D0008707FC0189E897E0DC012A2F281B2617E4
:1013E00018F421912D93F9CF80E0089581E00895BC
:1013F00082E0089585ED8093BC008091BC0084FD5F
:10140000FCCF1092D207089585EC8093BC00109217
:10141000D20708951F920F920FB60F9211240BB6A8
:101420000F922F933F934F935F936F937F938F937D
:101430009F93AF93BF93EF93FF938091B900887F01
:10144000803609F49CC068F5883209F45BC090F4DA
:10145000803109F454C038F4882309F4F3C088308B
:1014600009F44DC0F2C0883109F44CC0803209F44F
:101470005DC0EBC0803409F468C048F4803309F4DF
:1014800055C0883309F0E1C080936507A7C0803557
:1014900009F44FC0883509F45DC0883409F0D5C01F
:1014A000D3C0883909F4C4C0A8F4883709F467C0E8
:1014B00038F4883609F463C0803709F460C0C5C0C9
:1014C000883809F4B5C0803909F45FC0803809F064
:1014D000BCC05BC0803B09F483C038F4803A09F497
:1014E00066C0883A09F47CC0B0C0803C09F4A4C04E
:1014F000883C09F4A1C0883B09F487C0A6C080914C
:10150000D10710C09091AA078091A907981770F58C
:10151000E091AA0781E08E0F8093AA07F0E0E555DD
:10152000F84F80818093BB0085EC83C08093650772
:101530008BC0E091AA0781E08E0F8093AA0780916B
:10154000BB00F0E0E555F84F80839091AA078091A9
:10155000A9076BC0E091AA0781E08E0F8093AA07CC
:101560008091BB00F0E0E555F84F80838091D00773
:1015700081116AC081E08093CF0784EA5EC083E076
:101580008093D20710926607CFCF80916607803292
:1015900008F04EC0E091660781E08E0F80936607E9
:1015A0008091BB00F0E0E959F84F8083BDCF809176
:1015B0006607803230F4E0916607F0E0E959F84FB1
:1015C000108218DF6091660770E0E091CB07F09120
:1015D000CC0787E697E019951092660715DF35C0AE
:1015E00084E08093D2071092880710928707E091D9
:1015F000CD07F091CE07199580918707811105C01D
:1016000081E08093870710928907E091880781E045
:101610008E0F80938807F0E0E757F84F8081809322
:10162000BB009091880780918707981708F47CCFBA
:1016300085E88093BC0009C085EC8093BC001092C3
:10164000D20703C010926507D5DEFF91EF91BF91DD
:10165000AF919F918F917F916F915F914F913F914A
:101660002F910F900BBE0F900FBE0F901F901895EB
:101670008091020890E020910308821B910908954F
:101680002091030880910208281750F4E22FF0E01F
:10169000EC5FF74F808190E02F5F2093030808955F
:1016A0008FEF9FEF0895E091030880910208E817FB
:1016B00030F4F0E0EC5FF74F808190E008958FEF19
:1016C0009FEF08950895CF92DF92EF92FF920F93CC
:1016D0001F93CF93DF937C01CB018A012091DF0719
:1016E000222389F0EB016B01C40ED51ECC15DD055C
:1016F00061F06991D701ED91FC910190F081E02DAD
:10170000C7011995F3CF642F5CDEC801DF91CF913B
:101710001F910F91FF90EF90DF90CF900895CF939E
:10172000DF931F92CDB7DEB769832091DF072223B5
:10173000D1F02091E007203240F021E030E0FC01C0
:101740003383228380E090E014C08091E107E82F8A
:10175000F0E0EE51F84F998190838F5F8093E1071D
:101760008093E00704C061E0CE0101962ADE81E0AB
:1017700090E00F90DF91CF910895FC0113821282C7
:1017800048EE53E060E070E04483558366837783DE
:1017900083EF96E091838083089583ED97E0EDCF0A
:1017A000FC01818D228D90E0805C9F4F821B91090E
:1017B0008F7399270895FC01918D828D981731F0D0
:1017C000828DE80FF11D858D90E008958FEF9FEFDA
:1017D0000895FC01918D828D981761F0828DDF0153
:1017E000A80FB11D5D968C91928D9F5F9F73928F14
:1017F00090E008958FEF9FEF08958EE99DE0892B8B
:1018000039F080E090E0892B19F098D1811125C042
:1018100080E090E0892B41F080E090E0892B21F07E
:101820000E94000081111CC080E090E0892B41F0F3
:1018300080E090E0892B21F00E940000811113C00C
:1018400080E090E0892BA1F080E090E0892B81F08E
:101850000E94000081110AC008950E940000D8CFA4
:101860000E940000E1CF0E940000EACF0C9400002B
:101870000895FC01848DDF01A80FB11DA35ABF4F4D
:101880002C91848D90E001968F739927848FA6897F
:10189000B7892C93A089B1898C9180648C93938DA6
:1018A000848D981306C00288F389E02D80818F7D96
:1018B00080830895CF93DF93EC01888D8823C1F056
:1018C000EA89FB89808185FD05C0A889B9898C9149
:1018D00086FD0EC00FB607FCF5CF808185FFF2CFE5
:1018E000A889B9898C9185FFEDCFCE01C2DFE8CF01
:1018F000DF91CF910895CF92DF92FF920F931F93C4
:10190000CF93DF931F92CDB7DEB76C0181E0D60194
:1019100058968C9358975B969C915B975C968C91AC
:101920005C97981307C05096ED91FC915197808178
:1019300085FD2DC0F601038D10E00F5F1F4F0F7363
:101940001127F02EF601848DF81210C00FB607FC97
:10195000F9CFD6015096ED91FC915197808185FF8A
:10196000F1CFC601698385DF6981ECCF838DE80FF4
:10197000F11DE35AFF4F6083D6015B960C935B9792
:101980005296ED91FC915397808180620CC0D601F4
:101990005696ED91FC91579760835096ED91FC918E
:1019A000519780818064808381E090E00F90DF9187
:1019B000CF911F910F91FF90DF90CF900895BF922C
:1019C000CF92DF92EF92FF92CF93DF93EC016A0107
:1019D0007B01B22EE889F98982E08083411581EE8E
:1019E00058076105710599F060E079E08DE390E0BA
:1019F000A70196016DD7215031094109510956952A
:101A0000479537952795211580E1380790F0E889AB
:101A1000F989108260E874E88EE190E0A7019601F0
:101A200057D72150310941095109569547953795A6
:101A30002795EC85FD853083EE85FF852083188E04
:101A4000EC89FD89B082EA89FB898081806180838D
:101A5000EA89FB89808188608083EA89FB898081AB
:101A600080688083EA89FB8980818F7D8083DF9114
:101A7000CF91FF90EF90DF90CF90BF9008951F928D
:101A80000F920FB60F9211240BB60F922F938F93D4
:101A90009F93EF93FF93E0913408F0913508808194
:101AA000E0913A08F0913B0882FD12C0908180914C
:101AB0003D088F5F8F7320913E08821751F0E091AF
:101AC0003D08F0E0EC5DF74F958F80933D0801C035
:101AD0008081FF91EF919F918F912F910F900BBE7D
:101AE0000F900FBE0F901F9018951F920F920FB678
:101AF0000F9211240BB60F922F933F934F935F9346
:101B00006F937F938F939F93AF93BF93EF93FF93C5
:101B100084E298E0AEDEFF91EF91BF91AF919F918B
:101B20008F917F916F915F914F913F912F910F9086
:101B30000BBE0F900FBE0F901F90189584E298E097
:101B40002FDE21E0892B09F420E0822F08951092E6
:101B500027081092260888EE93E0A0E0B0E080937A
:101B6000280890932908A0932A08B0932B0883E0B3
:101B700097E0909325088093240885EC90E090935B
:101B800031088093300884EC90E090933308809380
:101B9000320880EC90E0909335088093340881EC13
:101BA00090E0909337088093360882EC90E0909311
:101BB00039088093380886EC90E090933B08809336
:101BC0003A0810923D0810923E0810923F08109279
:101BD00040080895CF92DF92EF92FF920F931F93E8
:101BE000CF93DF936C017A01EB01E60EF71E00E064
:101BF00010E0CE15DF0561F06991D601ED91FC9101
:101C00000190F081E02DC6011995080F191FF1CF41
:101C1000C801DF91CF911F910F91FF90EF90DF905E
:101C2000CF9008956115710581F0DB010D900020C2
:101C3000E9F7AD0141505109461B570BDC01ED910D
:101C4000FC910280F381E02D199480E090E00895EA
:101C5000E9CFDC01ED91FC910190F081E02D199428
:101C60006FE077E0DFCF0F931F93CF93DF93EC010B
:101C7000D9DF8C01CE01F4DF800F911FDF91CF916E
:101C80001F910F9108958F929F92AF92BF92CF9222
:101C9000DF92EF92FF920F931F93CF93DF93CDB715
:101CA000DEB7A1970FB6F894DEBF0FBECDBF7C01A3
:101CB000C42EE52FCB01D22E19A221E02D1510F054
:101CC0002AE0D22E8E010F5D1F4F8D2C912CA12C5E
:101CD000B12C6C2D7E2FA5019401FAD58C2DD29EAE
:101CE00080191124015011098A3014F4805D01C05B
:101CF000895CF8018083211531054105510521F0EA
:101D0000C22EE32FCA01E5CFB801C7018BDFA19630
:101D10000FB6F894DEBF0FBECDBFDF91CF911F91FC
:101D20000F91FF90EF90DF90CF90BF90AF909F907A
:101D30008F900895CF92DF92EF92FF920F931F93AF
:101D4000CF93DF93EC016A017B012115310579F412
:101D5000E881F9810190F081E02D642FDF91CF912E
:101D60001F910F91FF90EF90DF90CF9019942A3040
:101D70003105D9F477FF18C06DE26BDF8C01442781
:101D80005527BA014C195D096E097F092AE0CE0179
:101D90007ADF800F911FDF91CF911F910F91FF90FC
:101DA000EF90DF90CF9008952AE0B701A601CE0111
:101DB000DF91CF911F910F91FF90EF90DF90CF9027
:101DC00062CF9A01AB01662757FD6095762FB2CF9F
:101DD0002115310541F4DC01ED91FC910190F08178
:101DE000E02D642F19944FCF9A01462F50E060E008
:101DF00070E0EECF0F931F93CF93DF93EC019A0126
:101E0000462F50E060E070E0E3DF8C01CE0128DF78
:101E1000800F911FDF91CF911F910F9108959A012B
:101E2000AB0160E070E0D4CF0F931F93CF93DF93AB
:101E3000EC019A01AB0160E070E0CADF8C01CE01D9
:101E40000FDF800F911FDF91CF911F910F910895A8
:101E50004F925F926F927F928F929F92AF92BF92BA
:101E6000CF92DF92EF92FF920F931F93CF93DF9366
:101E7000EC016A017B01B22E9A01AB01C701B601E8
:101E80000ED5882319F062E177E024C026013701DE
:101E9000E89477F82FEF3FEF4FE75FE7C301B20118
:101EA000FED481110CC02FEF3FEF4FE75FE7C30176
:101EB000B201A2D218161CF466E177E00BC02FEF36
:101EC0003FEF4FE75FE4C701B60136D41816A4F41C
:101ED0006AE177E0CE01DF91CF911F910F91FF90E2
:101EE000EF90DF90CF90BF90AF909F908F907F90BA
:101EF0006F905F904F9096CE2FEF3FEF4FE75FECE4
:101F0000C701B60179D287FDE3CF20E030E0A90117
:101F1000C701B60171D287FF09C06DE2CE0199DE1B
:101F20008C01F7FAF094F7F8F09402C000E010E0AA
:101F3000A12C60E070E080E09FE3AB1439F020E07A
:101F400030E040E251E45CD2A394F7CF9B01AC01B6
:101F5000C701B60174D16B017C01BFD22B013C01DA
:101F6000E8D29B01AC01C701B60168D16B017C01CD
:101F70002AE0B301A201CE0186DE080F191FBB20A3
:101F800031F06EE177E0CE014DDE080F191F7B2C9A
:101F9000772019F120E030E040E251E4C701B601BA
:101FA000D6D36B017C0194D24B01AA2497FCA09458
:101FB000BA2C2AE030E0B501A401CE01BBDE080F47
:101FC000191FC501B401B7D29B01AC01C701B6010D
:101FD00035D16B017C017A94DBCFC801DF91CF91C1
:101FE0001F910F91FF90EF90DF90CF90BF90AF9037
:101FF0009F908F907F906F905F904F90089528CF23
:102000000F931F93CF93DF93EC0122DF8C01CE015E
:1020100027DE800F911FDF91CF911F910F910895BF
:102020000895A9D0FDDF0E94A006CDEFDBE00E945D
:10203000BB062097E1F3E1DBFACF1F920F920FB6B8
:102040000F9211242F933F938F939F93AF93BF933E
:102050008091C2089091C308A091C408B091C508AE
:102060003091C10823E0230F2D3720F40196A11DE4
:10207000B11D05C026E8230F0296A11DB11D2093B6
:10208000C1088093C2089093C308A093C408B0937A
:10209000C5088091C6089091C708A091C808B09162
:1020A000C9080196A11DB11D8093C6089093C70869
:1020B000A093C808B093C908BF91AF919F918F9129
:1020C0003F912F910F900FBE0F901F9018952FB733
:1020D000F8946091C2087091C3088091C4089091EF
:1020E000C5082FBF08953FB7F8948091C608909116
:1020F000C708A091C808B091C90826B5A89B05C01B
:102100002F3F19F00196A11DB11D3FBF6627782F03
:10211000892F9A2F620F711D811D911D42E0660F5C
:10212000771F881F991F4A95D1F70895CF92DF92A4
:10213000EF92FF92CF93DF936B017C01D4DFEB0131
:10214000C114D104E104F10479F077D0CCDF6C1B29
:102150007D0B683E7340A0F381E0C81AD108E10806
:10216000F108C851DC4FECCFDF91CF91FF90EF9099
:10217000DF90CF900895789484B5826084BD84B553
:10218000816084BD85B5826085BD85B5816085BD72
:10219000EEE6F0E0808181608083E1E8F0E010828B
:1021A000808182608083808181608083E0E8F0E0CC
:1021B000808181608083E1EBF0E0808184608083B6
:1021C000E0EBF0E0808181608083E1E9F0E08081F4
:1021D00082608083808181608083E0E9F0E080819B
:1021E00081608083E1EAF0E0808182608083808189
:1021F00081608083E0EAF0E0808181608083E1E2B9
:10220000F1E0808182608083808181608083E0E270
:10221000F1E0808181608083EAE7F0E08081846082
:1022200080838081826080838081816080838081DF
:10223000806880831092C100089508955058BB278C
:10224000AA270ED03FC230D230F035D220F031F480
:102250009F3F11F41EF4EFC10EF4E095E7FBE5C1DA
:10226000E92F41D280F3BA176207730784079507F5
:1022700018F071F49EF559C20EF4E0950B2EBA2FAA
:10228000A02D0B01B90190010C01CA01A00111247C
:10229000FF27591B99F0593F50F4503E68F11A1628
:1022A000F040A22F232F342F4427585FF3CF4695B9
:1022B00037952795A795F0405395C9F77EF41F16DB
:1022C000BA0B620B730B840BBAF09150A1F0FF0FA5
:1022D000BB1F661F771F881FC2F70EC0BA0F621F91
:1022E000731F841F48F4879577956795B795F79581
:1022F0009E3F08F0B3CF9395880F08F09927EE0F13
:102300009795879508959F939F77EEE389379E076A
:1023100020F4E4EEF0E0B7D109C048D19058A2EA29
:102320002AED3FE049EC5FE39BDFCCD10F9007FC47
:1023300090580895B9D158F080E891E009F49EEFE3
:10234000BAD128F040E851E059F45EEF09C073C1FA
:10235000ECC1E92FE078C7D168F3092E052AC1F353
:10236000261737074807590738F00E2E07F8E025DB
:1023700069F0E025E0640AC0EF6307F8009407FA0B
:10238000DB01B9019D01DC01CA01AD01EF9347D02A
:1023900099D10AD05F91552331F02BED3FE049E40C
:1023A00050FD49EC4CCF0895DF93DD27B92FBF775F
:1023B00040E85FE31616170648075B0710F4D92FAD
:1023C000BFD19F938F937F936F9366D2E8EFF0E036
:1023D00035D178D12F913F914F915F91C4D1DD23B9
:1023E00049F09058A2EA2AED3FE049EC5FE3D0784B
:1023F0005D2736DFDF9166C1F4D008F481E00895EF
:102400000CD060C158D140F04FD130F021F45F3F83
:1024100019F00BC151118AC10EC165D198F39923EE
:10242000C9F35523B1F3951B550BBB27AA27621798
:102430007307840738F09F5F5F4F220F331F441FDD
:10244000AA1FA9F333D00E2E3AF0E0E830D0915015
:102450005040E695001CCAF729D0FE2F27D0660F02
:10246000771F881FBB1F261737074807AB07B0E841
:1024700009F0BB0B802DBF01FF2793585F4F2AF057
:102480009E3F510568F0D1C051C15F3FECF3983ECB
:10249000DCF3869577956795B795F7959F5FC9F7B4
:1024A000880F911D9695879597F90895E1E0660F3D
:1024B000771F881FBB1F621773078407BA0720F0B6
:1024C000621B730B840BBA0BEE1F88F7E09508951F
:1024D00004D06894B1112AC108950DD188F09F5796
:1024E00090F0B92F9927B751A0F0D1F0660F771F60
:1024F000881F991F1AF0BA95C9F712C0B13081F040
:1025000014D1B1E0089511C1672F782F8827B85FE3
:1025100039F0B93FCCF3869577956795B395D9F7A0
:102520003EF490958095709561957F4F8F4F9F4FAA
:102530000895E89409C097FB3EF4909580957095B6
:1025400061957F4F8F4F9F4F9923A9F0F92F96E9FF
:10255000BB279395F695879577956795B795F11174
:10256000F8CFFAF4BB0F11F460FF1BC06F5F7F4F11
:102570008F4F9F4F16C0882311F096E911C0772323
:1025800021F09EE8872F762F05C0662371F096E82C
:10259000862F70E060E02AF09A95660F771F881FFB
:1025A000DAF7880F9695879597F90895DF93CF937B
:1025B0001F930F938B01EC01E5E2F1E03FD082D055
:1025C0009801AE018B01EC0160E070E080E89FE3D0
:1025D00035DE24D19801AE010F911F91CF91DF918B
:1025E000C2C0990F0008550FAA0BE0E8FEEF1616BF
:1025F0001706E807F907C0F012161306E407F507F7
:1026000098F0621B730B840B950B39F40A2661F06A
:10261000232B242B252B21F408950A2609F4A1400D
:10262000A6958FEF811D811D089597F99F6780E81A
:1026300070E060E008959FEF80EC0895DF93CF9302
:102640001F930F93FF92EF92DF927B018C016894AE
:1026500005C0DA2EEF0187D0FE01E894A5912591FF
:10266000359145915591AEF3EF01FADDFE019701E9
:10267000A801DA9479F7DF90EF90FF900F911F9106
:10268000CF91DF9108959F938F937F936F93FF93E3
:10269000EF939B01AC015BD0EF91FF91CFDF2F91C6
:1026A0003F914F915F9153C000240A94161617066C
:1026B00018060906089500240A9412161306140633
:1026C00005060895092E0394000C11F4882352F096
:1026D000BB0F40F4BF2B11F460FF04C06F5F7F4F4E
:1026E0008F4F9F4F089557FD9058440F551F59F035
:1026F0005F3F71F04795880F97FB991F61F09F3FEF
:1027000079F087950895121613061406551FF2CF17
:102710004695F1DF08C0161617061806991FF1CF67
:1027200086957105610508940895E894BB2766278E
:102730007727CB0197F9089554DF08F48FEF0895B8
:102740009B01AC0160E070E080E89FE359CE0BD0C4
:10275000B9CFAADF28F0AFDF18F0952309F065CFD5
:102760006ACF1124E3CFBFDFA0F3959FD1F3950F7C
:1027700050E0551F629FF001729FBB27F00DB11D05
:10278000639FAA27F00DB11DAA1F649F6627B00D95
:10279000A11D661F829F2227B00DA11D621F739F7E
:1027A000B00DA11D621F839FA00D611D221F749F8C
:1027B0003327A00D611D231F849F600D211D822FD3
:1027C000762F6A2F11249F5750408AF0E1F088231A
:1027D0004AF0EE0FFF1FBB1F661F771F881F915027
:1027E0005040A9F79E3F510570F01FCF9FCF5F3F2C
:1027F000ECF3983EDCF3869577956795B795F7955A
:10280000E7959F5FC1F7FE2B880F911D96958795E1
:1028100097F9089511F40EF40ECF45C06CDFD0F394
:102820009923D9F3CEF39F57550B87FF4AD0002445
:10283000A0E640EA900180585695979528F4805C70
:10284000660F771F881F20F026173707480730F4D8
:10285000621B730B840B202931294A2BA6951794F0
:102860000794202531254A2758F7660F771F881FC0
:1028700020F026173707480730F4620B730B840BE0
:10288000200D311D411DA09581F7B901842F91586C
:10289000880F9695879508959B01AC0158CFA1DECE
:1028A000880B990B08959F3F31F0915020F4879544
:1028B00077956795B795880F911D9695879597F9A8
:1028C000089591505040660F771F881FD2F70895E2
:1028D000A1E21A2EAA1BBB1BFD010DC0AA1FBB1F24
:1028E000EE1FFF1FA217B307E407F50720F0A21B96
:1028F000B30BE40BF50B661F771F881F991F1A9403
:1029000069F760957095809590959B01AC01BD012C
:10291000CF0108950790F691E02D1994F894FFCF18
:102920005061676520636F756E742063616E6E6FB2
:1029300074206265206D6F7265207468616E20314D
:1029400032382062797465732100454D3731383053
:1029500020524F4D2056657273696F6E3A20307861
:102960000053686F756C642062653A203078453694
:10297000303900454D373138302052414D205665B1
:102980007273696F6E3A20307800454D37313830B8
:102990002050726F6475637449443A203078002087
:1029A00053686F756C642062653A20307838300067
:1029B000454D37313830205265766973696F6E49FD
:1029C000443A203078002053686F756C642062654B
:1029D0003A203078303200454550524F4D206465E2
:1029E000746563746564206F6E2074686520736518
:1029F0006E736F72206275732100454550524F4DC2
:102A00002075706C6F6164656420636F6E666967C2
:102A10002066696C652100454550524F4D20435258
:102A20004320696E636F72726563742100454D3790
:102A300031383020696E20696E697469616C697A19
:102A4000656420737461746521004E6F20454550A4
:102A5000524F4D206465746563746564210045457B
:102A600050524F4D2075706C6F61642073756363B5
:102A700065737366756C2100426567696E6E696E79
:102A80006720506172616D657465722041646A757A
:102A900073746D656E74730020454D373138302086
:102AA00072756E20737461747573203D206E6F7241
:102AB0006D616C206D6F64650020454D3731383095
:102AC000207374616E64627920737461747573002D
:102AD00020454D3731383020616C676F72697468FA
:102AE0006D20736C6F770020454D37313830206989
:102AF0006E207374696C6C6E657373206D6F6465A2
:102B00000020454D37313830206D61672063616C9E
:102B10006962726174696F6E20636F6D706C657449
:102B200065640020454D37313830206D61676E6532
:102B300074696320616E6F6D616C79206465746582
:102B4000637465640020454D3731383020756E72EE
:102B5000656C6961626C652073656E736F72206469
:102B60006174610020454D3731383020696E207026
:102B700061737374687275206D6F64652100204500
:102B80004D373138302043505520726573657400DD
:102B900020454D37313830204572726F7200204524
:102BA0004D37313830206E657720717561746572EC
:102BB0006E696F6E20726573756C740020454D37B9
:102BC000313830206E6577206D61672072657375CE
:102BD0006C740020454D37313830206E65772061A8
:102BE0006363656C20726573756C740020454D37A6
:102BF000313830206E6577206779726F2072657387
:102C0000756C740020454D37313830206E65772063
:102C10006261726F20726573756C740020454D3768
:102C20003138302073656E736F7220737461747500
:102C300073203D2000416C6C2073656E736F72735E
:102C4000204F4B21004D61676E65746F6D65746533
:102C500072206E6F742061636B6E6F776C65646752
:102C6000696E672100416363656C65726F6D6574A1
:102C70006572206E6F742061636B6E6F776C656434
:102C800067696E6721004779726F206E6F742061EB
:102C9000636B6E6F776C656467696E6721004D6169
:102CA000676E65746F6D65746572204944206E6F40
:102CB00074207265636F676E697A65642100416391
:102CC00063656C65726F6D65746572204944206E32
:102CD0006F74207265636F676E697A65642100475F
:102CE00079726F204944206E6F74207265636F673C
:102CF0006E697A6564210041637475616C204D6171
:102D00006752617465203D200020487A0041637459
:102D100075616C20416363656C52617465203D2070
:102D20000041637475616C204779726F52617465FC
:102D3000203D20006C6F673A5363616E6E696E6769
:102D400020666F7220646576696365732E2E2E701F
:102D50006C6561736520776169743B006C6F673ADD
:102D6000546865726520697320612070726F626CAF
:102D7000656D207769746820746865206275732CAE
:102D800020636F756C64206E6F7420636F6D706C60
:102D9000657465207363616E3B006C6F673A466FC4
:102DA000756E642064657669636520617420616472
:102DB0006472657373202D20006C6F673A4E6F202C
:102DC0006465766963657320666F756E643B004E5B
:102DD0004F5045442041004E4F5045442042004E44
:102DE0004F5045442043004E4F5045442044004E30
:102DF0004F5045442045004E4F5045442046004E1C
:102E00004F5045442047004E4F5045442048000055
:102E10000000008F0B630B380B400B530B620B0051
:102E20000000007B0CEA0DD00BE90BDB0B5A0C0DFC
:102E30000A006E616E00696E66006F7666002E0095
:00000001FF
